:03216100750800FE
:0A21AB00C018858118E582FA24F8B7
:0421B5005002803222
:0A21B900AB088AF005F07401800203
:0221C30025E015
:0C21C500D5F0FBFAA818181818E6600501
:0521D100EA4203800555
:0521D600EAF4FA5203D7
:0E21DB00C003C0039000071222011581D0033B
:0221E9008B0861
:0321EB00D01822E7
:0E21EE00AA82C002C0029000071222011581D1
:0521FC00D0028A082258
:0A220100C018858118AC84758408AC
:0A220B00A818181818E6F08C84D00B
:0222150018228D
:0C221700AC84758408E0FA8C848A822272
:0A222300C018858118AA82AB8374ED
:07222D0002F00ABA00010BE8
:0C223400E51824FBF886040886058D04DC
:0C2240008A828B83ECF0A3AA82AB83E5BA
:0C224C001824FBF886048A828B83ECF0D7
:03225800D0182279
:012B9900FF3C
:012B9A00003A
:05216400E4F509F50A95
:06225B00E4F50BF50CF5A3
:042261000DF50EF574
:0422650009F50A7AF3
:0A226900187B237C80C002C003C074
:0E2273000490202B12222315811581158175F0
:0E228100CDFC75CC1875CBFC75CA18D2ADD249
:02228F00CA2261
:07229100850B82850C83859B
:052298000DF0E50E222F
:0C229D00AA82AB83ACF0FDE50BC39AFAFB
:0922A900E50C9BFBE50D9CFCE536
:0922B2000E9D8A828B838CF022C0
:0A22BB00C018858118C082C083C0DE
:0E22C500F0C0E0E5812408F581122291AA8282
:0C22D300AB83ACF0FDE5182405F8A60272
:0922DF0008A60308A60408A605E0
:0C22E800E5182405F88682088683088625
:0E22F400F008E612229DAC82AD83AAF0FBA892
:0C2302001808C3EC96ED0896EA0896EB6C
:0A230E00089640D6851881D01822E9
:0C231800C020C0E0C0F0C082C083C00242
:0E232400C003C004C005C006C007C000C00151
:0A233200C0D075D000050BE4B50B18
:07233C000C050CB50C0705B0
:052343000DB50D0205BF
:012348000E86
:0E234900122999D0D0D001D000D007D006D0F4
:0E23570005D004D003D002D083D082D0F0D0C5
:04236500E0D0203272
:012B9B00FF3A
:012B9C000038
:012B9D00F047
:012B9E000F27
:03216900750FFFF0
:0E236900AA8290600075F000C00212252A9032
:09237700604375F00012252A7B79
:0A238000A17C247D80C003C004C0CE
:0E238A0005902023122223158115811581D084
:0E239800028A8D438920438840759850D2AC4C
:0123A6002214
:0C23A700AA82C2ACE510700B902B9FE4E2
:0723B30093F5108A99801ECA
:0E23BA0090604375F000C002122586E582D0C7
:0E23C80002700DC00290604375F0001225A552
:0223D60015816F
:0323D800D2AC2262
:0C23DB00AA82AB83ACF0C2ACE510701716
:0C23E700902B9FE493F5108A828B838C6E
:0B23F300F0122B79F599A3AA82AB83AE
:0E23FE008A828B838CF0122B796043906043AF
:0E240C0075F000C002C003C004122586E582F0
:0E241A00D004D003D00270DC8A828B838CF059
:0E242800122B79FDA3AA82AB83C002C003C0B1
:0E24360004C00590604375F0001225A51581C5
:08244400D004D003D00280B2E5
:03244C00D2AC22ED
:0E244F00AA82AB83ACF0C2AC90600075F000C6
:0E245D00C002C003C004122567AD82D004D0B7
:07246B0003D002EDB40100F3
:0E247200E433FD602590600075F000C002C0EC
:0E24800003C004C005122650AE82D005D00461
:0E248E00D003D0028A828B838CF0EE122B607A
:05249C00D2AC8D82228C
:0C24A100C020C0E0C0F0C082C083C002B8
:0E24AD00C003C004C005C006C007C000C001C7
:0E24BB00C0D075D00030992590604375F000B8
:0D24C900122567E5826009902BA0E493F5D1
:0324D60010800D66
:0D24D90090604375F000122650AA828A9987
:0224E600C29999
:0524E8001098028020A5
:0E24ED00AA9990600075F000C002122586E5E5
:0E24FB0082D002700DC00290600075F00012D9
:0425090025A515816E
:0E250D00D0D0D001D000D007D006D005D00429
:0D251B00D003D002D083D082D0F0D0E0D029
:0225280020325F
:012B9F00FF36
:012BA0000034
:012BA1000033
:0E252A00AA82AB83ACF074402AFDE43BFE8C29
:0E253800078D828E838FF0E4122B6074412A8F
:0E254600FDE43BFE8C078D828E838FF0E41245
:0E2554002B6074422AFAE43BFB8A828B838C54
:05256200F0E4022B6013
:0E256700AA82AB83ACF074422AFAE43BFB8AF2
:0E257500828B838CF0122B79FAE4BA000104F9
:03258300F58222BC
:0E258600AA82AB83ACF074422AFAE43BFB8AD3
:0E259400828B838CF0122B79FAE4BA4001049A
:0325A200F582229D
:0A25A500C018858118C082C083C0F1
:0C25AF00F0E5812407F581A818087440AD
:0E25BB0026FDE40836FE0886078D828E838F8B
:0B25C900F0E5182404F8122B79F6A8A6
:0A25D4001808E5182404F9E726FBB7
:0E25DE00E40836FC0886028B828C838AF0A803
:0925EC0018181818E6122B60E51E
:0C25F500182404F8E604FB8D828E838F0E
:08260100F0122B60A81808E597
:0C260900182405F9744226F7E40836098D
:0C261500F70809E6F7E5182405F88682AE
:0C2621000886830886F0122B79FA0AE57F
:0C262D00182405F886820886830886F0D1
:0E263900EA122B60BB400A8D828E838FF0E484
:03264700122B60F3
:06264A00851881D0182262
:0A265000C018858118C082C083C045
:0C265A00F0E5812407F581A81808744100
:0E26660026FDE40836FE0886078D828E838FDF
:0B267400F0E5182404F8122B79F6A8FA
:0A267F001808E5182404F9E726FB0B
:0E268900E40836FC0886028B828C838AF012ED
:0C2697002B79FBE5182404F8E604FC8D08
:0C26A300828E838FF0122B60A81808E5CF
:0C26AF00182405F9744226F7E4083609E7
:0C26BB00F70809E6F7E5182405F8868208
:0C26C7000886830886F0122B79FA1AE5C9
:0C26D300182405F886820886830886F02B
:0E26DF00EA122B60BC400A8D828E838FF0E4DD
:0326ED00122B604D
:0826F0008B82851881D01822AD
:012BA200FF33
:012BA3000031
:03216C007511FFEB
:0626F8009000020222170F
:0726FE0075130075140022A2
:08270500902BA6E493F51202EB
:02270D0026FEA6
:07270F00C018858118058147
:0E2716001226F8AA82902BA7E493FBEAB503E3
:0C2724003EAA180A7B007C408A828B834E
:0C2730008CF01228D3E582601FA8180866
:02273C00860213
:0E273E00EA24C6400C8A82C0021223A7D002F1
:03274C000A80EF11
:09274F00902BA975F0801223DB28
:0B275800900064E4F5F01222BB80B397
:042763008511128545
:052767001881D01822CA
:0E276C001226F8AA82902BA7E493FBEAB5038D
:03277A0002800BCF
:0B277D00900064E4F5F01222BB80E441
:08278800902BA6E493F5122248
:0A279000902BA6E493FAB5120E9008
:09279A002BAC75F0801223DB1258
:0427A300270F80E993
:0A27A700902BBA75F0801223DB12AC
:0427B100276C80DB36
:0D27B500902BCF75F0801223DB7582AA12E5
:0627C20021EE7514022255
:0D27C800E582FA24F6500674372AF58222C5
:0627D50074302AF5822297
:0827DB00C0188581180581AAD0
:0C27E300180A7B007C408A828B838CF0FB
:0B27EF001228D3E58270061227B50205
:0227FA0028BDF8
:0C27FC007402B514091226FE758200124A
:0228080021EEBF
:06280A00E4B51402800B8E
:082810007401B51403022884D1
:032818000228BDD6
:06281B00A81808B6300009
:0B2821004051A81808E624C64049A852
:08282C00180886821223A7A8F8
:0C2834001808E624D0FA902BA8E493FBCF
:0C2840007C00E51375F00AA4D39BF4B3F0
:0E284C00FBEC95F0FC8A057E00C3EB9DEC646E
:0E285A00808EF063F08095F050051227B58057
:01286800541B
:0A286900E51375F00AA42AF51380A8
:01287300491B
:0A287400A81808B62A0575140180A3
:01287E003E1B
:05287F001227B58039AD
:0C288400A81808B62330902BD975F080FE
:0B2890001223DBE513C4540FF5821285
:08289B0027C81223A7740F5592
:0728A30013F5821227C81291
:0928AA0023A7902BA975F0801200
:0728B30023DB1226FE800367
:0328BA001227B52D
:0628BD00851881D01822ED
:012BA400FF31
:012BA500002F
:012BA600002E
:012BA700012C
:012BA800FF2D
:032BA9000D0A0012
:0E2BAC000D0A706F6C6C206D6F64650D0A0071
:0E2BBA000D0A696E746572757074696F6E2015
:072BC8006D6F64650D0A004A
:0A2BCF000D0A6572726F720D0A00A4
:072BD9000D0A4865783A007F
:07216F007521FF7552317567
:0621760053347554377567
:06217C00552A755632756C
:0621820057357558387551
:062188005930755A337551
:06218E005B36755C39753B
:062194005D23755E41753C
:06219A005F427560437511
:0521A0006144756200BE
:0A28C30090608675F00012252A755A
:0628CD00630075640022A7
:0E28D300AA82AB83ACF0C2AD90608675F000B7
:0E28E100C002C003C004122567AD82D004D02F
:0728EF0003D002EDB401006B
:0E28F600E433FD602590608675F000C002C0DE
:0E29040003C004C005122650AE82D005D004D8
:0E291200D003D0028A828B838CF0EE122B60F1
:05292000D2AD8D822202
:092925008563F005F074018002E5
:02292E0025E0A2
:0E293000D5F0FBF4FAC002900000122201154F
:0E293E0081900000122217E58254F07B00F415
:0E294C00FAEBF4FBC4CAC4540F6ACA540FCA93
:07295A006ACA30E30244F0F9
:032961008A822245
:0B296400AA82756501C002122AC39010
:0E296F00608675F000122586E582D002701B8E
:0C297D00EA2452F88602C00290608675C1
:0A298900F0001225A51581E521B527
:0529930012030227DB26
:01299800221C
:0929990005647402B564028003B8
:0329A200022A8C7A
:0A29A500756400122925AA827B0048
:0E29AF00902BE3E493FCC3EB9C4003022A7ED2
:0C29BD008563F0ECA4FCEB2CFC8BF00517
:0429C900F0EA8002AE
:0229CD00C31332
:0C29CF00D5F0FB30E03EEC2422F8860539
:0E29DB00902BE7E493FEC3ED9E50520DA6052F
:0C29E900902BE5E493FEC39D5045EC24C8
:0C29F50032F8E6703E8C82C002C003C0C5
:0C2A010004122964D004D003D002EC249D
:062A0D0032F8760180257D
:0C2A1300EC2422F8E6FD601D1DA60590D5
:0C2A1F002BE6E493FEC3ED9E500FEC2468
:0A2A2B0032F8E660087600EC244261
:032A3500F8760030
:0C2A3800EC2432F8E6FD603A902BE8E454
:0C2A440093FEC3ED9E5005ED04F6802AC1
:0C2A5000EC2442F886050DA605902BE949
:0E2A5C00E493FEEDB506178C82C002C003C0E5
:0C2A6A0004122964D004D003D002EC2434
:042A760042F87600AC
:042A7A000B0229AF73
:092A7E000563902BE4E493FAB522
:052A870063037563000C
:072A8C00E56560110565908E
:092A93002BEAE493FAB565061282
:052A9C002AD075650061
:012AA1002212
:012BE000FFF5
:012BE10000F3
:012BE20000F2
:012BE30004ED
:012BE40004EC
:012BE50008E7
:012BE60003EB
:012BE70014D9
:012BE8003CB0
:012BE9006487
:012BEA006486
:0A2AA2007AE67B2A7C80C002C003A4
:0E2AAC00C00490200B12222315811581158184
:092ABA00438902D2A9758C0622A1
:0C2AC300902BECE493F516758A06D28C7B
:012ACF0022E4
:0C2AD000C28C902BECE493F5167420C02F
:0A2ADC00E09000041222011581228F
:0C2AE600C020C0E0C0F0C082C083C0026D
:0E2AF200C003C004C005C006C007C000C0017C
:0C2B0000C0D075D000E516600E743CC01B
:0B2B0C00E09000041222011581800CF3
:0C2B17007420C0E090000412220115811F
:052B2300E516B40100FD
:0C2B2800E433F516D0D0D001D000D00767
:0E2B3400D006D005D004D003D002D083D082CA
:072B4200D0F0D0E0D02032FA
:012BEB00FFEA
:012BEC0000E8
:03210000022108B1
:0321A5007517FFAC
:0321A8000221030E
:05210300122B4980FED3
:0A2B490012225B1228C37582FD12F0
:062B5300236912270512A0
:072B59002AA2D2AF0227906F
:012BED00FFE8
:012BEE0000E6
:012BEF0000E5
:06213700E478FFF6D8FD7C
:082115007900E94400601B7A27
:05211D0000902BF0789A
:03212200C975A0DC
:0A21250060E493F2A308B80002057D
:08212F00A0D9F4DAF275A0FF5B
:0E2B600020F71030F6118883A88220F507F6C2
:052B6E00A8837583003F
:012B7300223F
:032B7400F280F7F5
:022B7700F0224A
:08213D007800E84400600A7913
:032145000075A082
:0621480060E4F309D8FC7D
:08214E0078C9E84400600C7937
:0B21560001906000E4F0A3D8FCD9FA6F
:0321080075816579
:0A210B00122B95E582600302210308
:0E2B790020F71430F6148883A88220F507E6B2
:062B8700A8837583002203
:032B8D00E280F7EC
:032B9000E49322A9
:022B9300E0223E
:042B95007582002223
:00000001FF
