:03216100750800FE
:0A217500C015858115E582FA24F8F3
:04217F005002803258
:0A218300AB088AF005F07401800239
:02218D0025E04B
:0C218F00D5F0FBFAA815181818E660053A
:05219B00EA420380058B
:0521A000EAF4FA52030D
:0E21A500C003C0039000071221CB1581D003A8
:0221B3008B0897
:0321B500D0152220
:0E21B800AA82C002C0029000071221CB15813E
:0521C600D0028A08228E
:0A21CB00C015858115AC84758408E9
:0A21D500A815181818E6F08C84D045
:0221DF001522C7
:0C21E100AC84758408E0FA8C848A8222A9
:0A21ED00C015858115AA82AB83742A
:0721F70002F00ABA00010B1F
:0C21FE00E51524FBF886040886058D0416
:0C220A008A828B83ECF0A3AA82AB83E5F0
:0C2216001524FBF886048A828B83ECF010
:03222200D01522B2
:0128B900FF1F
:0128BA00001D
:05216400E4F509F50A95
:06222500E4F50CF50DF5D7
:04222B000EF50FF5A8
:04222F0009F50A7A29
:0A223300EF7B227C80C002C003C0D4
:0E223D000490202B1221ED1581158115819042
:07224B0028BDE493F50B85AB
:0C2252000B821221B875CDFC75CC1875FC
:0A225E00CBFC75CA18D2ADD2CA221B
:07226800850C82850D8385C2
:05226F000EF0E50F2256
:0C227400AA82AB83ACF0FDE50CC39AFA23
:09228000E50D9BFBE50E9CFCE55D
:092289000F9D8A828B838CF022E8
:0A229200C015858115C082C083C00D
:0E229C00F0C0E0E5812408F581122268AA82D4
:0C22AA00AB83ACF0FDE5152405F8A6029E
:0922B60008A60308A60408A60509
:0C22BF00E5152405F88682088683088651
:0E22CB00F008E6122274AC82AD83AAF0FBA8E4
:0C22D9001508C3EC96ED0896EA0896EB99
:0A22E500089640D6851581D0152219
:0B22EF00C0E0C0D075D000050CE4B5C5
:0522FA000C0C050DB500
:0522FF000D07050EB5FE
:042304000E02050FB1
:05230800D0D0D0E0324E
:0128BB00FF1D
:0128BC00001B
:0128BD00F02A
:0128BE000F0A
:032169007521FFDE
:0E230D00AA8290002275F040C0021224D690E1
:09231B00004F75F0401224D67B3E
:0A232400457C247D80C003C004C086
:0E232E00059020231221ED158115811581D017
:0E233C00028A8D438920438840759850D2ACA8
:01234A002270
:0C234B00AA82C2ACE57C700B9028BFE4B5
:0723570093F57C8A99801EBA
:0E235E0090004F75F040C002122532E582D08B
:0E236C0002700DC00290004F75F04012255116
:02237A001581CB
:03237C00D2AC22BE
:0C237F00AA82AB83ACF0C2ACE57C701706
:0C238B009028BFE493F57C8A828B838C41
:0B239700F0122899F599A3AA82AB83ED
:0E23A2008A828B838CF0122899604390004F42
:0E23B00075F040C002C003C004122532E58261
:0E23BE00D004D003D00270DC8A828B838CF0B6
:0E23CC00122899FDA3AA82AB83C002C003C0F1
:0E23DA0004C00590004F75F04012255115818A
:0823E800D004D003D00280B242
:0323F000D2AC224A
:0E23F300AA82AB83ACF0C2AC90002275F04021
:0E240100C002C003C004122513AD82D004D067
:07240F0003D002EDB401004F
:0E241600E433FD602590002275F040C002C046
:0E24240003C004C0051225FCAE82D005D00412
:0E243200D003D0028A828B838CF0EE122880B9
:05244000D2AC8D8222E8
:0C244500C020C0E0C0F0C082C083C00214
:0E245100C003C004C005C006C007C000C00123
:0E245F00C0D075D00030992590004F75F04028
:0D246D00122513E58260099028C0E493F564
:03247A007C800D56
:0D247D0090004F75F0401225FCAA828A994C
:02248A00C299F5
:05248C001098028028F9
:0E249100AA9990002275F040C002122532E593
:0E249F0082D002700DC00290002275F0401233
:0424AD00255115811F
:0624B100E521B511031244
:0224B700278775
:0E24B900D0D0D001D000D007D006D005D0047E
:0D24C700D003D002D083D082D0F0D0E0D07E
:0224D4002032B4
:0128BF00FF19
:0128C0000017
:0128C1000016
:0E24D600AA82AB83ACF0742A2AFDE43BFE8C94
:0E24E400078D828E838FF0E4122880742B2ADD
:0E24F200FDE43BFE8C078D828E838FF0E4129A
:0E2500002880742C2AFAE43BFB8A828B838CA1
:05250E00F0E40228804A
:0E251300AA82AB83ACF0742C2AFAE43BFB8A5C
:0E252100828B838CF0122899FAE4BA00010430
:03252F00F5822210
:0E253200AA82AB83ACF0742C2AFAE43BFB8A3D
:0E254000828B838CF0122899FAE4BA2A0104E7
:03254E00F58222F1
:0A255100C015858115C082C083C04B
:0C255B00F0E5812407F581A81508742A1A
:0E25670026FDE40836FE0886078D828E838FDF
:0B257500F0E5152404F8122899F6A8E0
:0A2580001508E5152404F9E726FB11
:0E258A00E40836FC0886028B828C838AF0A857
:0925980015181818E6122880E558
:0C25A100152404F8E604FB8D828E838F65
:0825AD00F0122880A81508E5D2
:0C25B500152405F9742C26F7E4083609FB
:0C25C100F70809E6F7E5152405F8868206
:0C25CD000886830886F0122899FA0AE5B7
:0C25D900152405F886820886830886F029
:0E25E500EA122880BB2A0A8D828E838FF0E4D2
:0325F3001228802B
:0625F600851581D01522BD
:0A25FC00C015858115C082C083C0A0
:0C260600F0E5812407F581A81508742B6D
:0E26120026FDE40836FE0886078D828E838F33
:0B262000F0E5152404F8122899F6A834
:0A262B001508E5152404F9E726FB65
:0E263500E40836FC0886028B828C838AF01241
:0C2643002899FBE5152404F8E604FC8D42
:0C264F00828E838FF0122880A81508E509
:0C265B00152405F9742C26F7E408360954
:0C266700F70809E6F7E5152405F886825F
:0C2673000886830886F0122899FA1AE500
:0C267F00152405F886820886830886F082
:0E268B00EA122880BC2A0A8D828E838FF0E42A
:0326990012288084
:08269C008B82851581D0152207
:0128C200FF16
:0128C3000014
:03216C007510FFEC
:0626A4009000020221E19A
:0726AA0075120075130022F8
:0826B1009028C6E493F5110224
:0226B90026AA4F
:0726BB00C0158581150581A2
:0E26C2001226A4AA829028C7E493FBEAB5036F
:0C26D0003EAA150A7B007C408A828B83A6
:0C26DC008CF01223F3E582601FA81508A3
:0226E800860268
:0E26EA00EA24C6400C8A82C00212234BD002A2
:0326F8000A80EF66
:0926FB009028C975F08012237FBC
:0B270400900001E4F5F012229280B377
:04270F00851011859B
:052713001581D0152224
:0E2718001226A4AA829028C7E493FBEAB50318
:0327260002800B23
:0B272900900001E4F5F012229280E421
:082734009028C6E493F5112280
:0A273C009028C6E493FAB5110E9040
:0927460028CC75F08012237F12EB
:04274F0026BB80E93C
:0A2753009028DA75F08012237F123F
:04275D00271880DBDE
:0D2761009028EF75F08012237F7582AA1278
:06276E0021B875130222E0
:0D277400E582FA24F6500674372AF5822219
:0627810074302AF58222EB
:08278700C0158581150581AA2A
:0C278F00150A7B007C408A828B838CF052
:0B279B001223F3E58270061227610292
:0227A6002869A0
:0C27A8007402B513091226AA75820012F3
:0227B40021B84A
:0627B600E4B51302800BE4
:0827BC007401B513030228307B
:0327C4000228697F
:0627C700A81508B6300061
:0B27CD004051A81508E624C64049A8AA
:0827D8001508868212234BA8AC
:0C27E0001508E624D0FA9028C8E493FB0A
:0C27EC007C00E51275F00AA4D39BF4B346
:0E27F800FBEC95F0FC8A057E00C3EB9DEC64C3
:0E280600808EF063F08095F0500512276180FF
:01281400546F
:0A281500E51275F00AA42AF51280FE
:01281F00496F
:0A282000A81508B6720575130180B3
:01282A003E6F
:05282B00122761803955
:0C283000A81508B66E309028F975F080ED
:0B283C0012237FE512C4540FF5821236
:08284700277412234B740F5596
:07284F0012F582122774123A
:09285600234B9028C975F0801293
:07285F00237F1226AA80036B
:03286600122761D5
:06286900851581D0152247
:0128C400FF14
:0128C5000012
:0128C6000011
:0128C700010F
:0128C800FF10
:0328C9000D0A00F5
:0E28CC000D0A706F6C6C206D6F64650D0A0054
:0E28DA000D0A696E746572757074696F6E20F8
:0728E8006D6F64650D0A002D
:0A28EF000D0A6572726F720D0A0087
:0728F9000D0A4865783A0062
:03210000022108B1
:03216F007514FFE5
:0321720002210344
:0521030012286F80FEB0
:0A286F001222257582FD12230D12BE
:0728790026B1D2AF02273C9B
:01290000FFD7
:0129010000D5
:0129020000D4
:06213700E478FFF6D8FD7C
:082115007900E94400601B7A27
:05211D00009029037889
:032122000075A0A5
:0A21250060E493F2A308B80002057D
:08212F00A0D9F4DAF275A0FF5B
:0E28800020F71030F6118883A88220F507F6A5
:05288E00A88375830022
:012893002222
:03289400F280F7D8
:02289700F0222D
:08213D007800E84400600A7913
:032145000075A082
:0621480060E4F309D8FC7D
:08214E007800E84400600C7900
:0B21560000906000E4F0A3D8FCD9FA70
:0321080075817C62
:0A210B001228B5E5826003022103EB
:0E28990020F71430F6148883A88220F507E695
:0628A700A88375830022E6
:0328AD00E280F7CF
:0328B000E493228C
:0228B300E02221
:0428B5007582002206
:00000001FF
